:100000000C9446000C9465000C9465000C946500FB
:100010000C9465000C9465000C9465000C946500CC
:100020000C9465000C9465000C9465000C946500BC
:100030000C9465000C94DE000C9465000C94650033
:100040000C9465000C9465000C9465000C9465009C
:100050000C9465000C9465000C9465000C9465008C
:100060000C9465000C9465000C9465000C9465007C
:100070000C9465000C9465000C9465000C9465006C
:100080000C9465000C9465000C94650011241FBE4F
:10009000CFEFD0E4DEBFCDBF11E0A0E0B1E0E4E7F8
:1000A000F5E000E00BBF02C007900D92A231B1074E
:1000B000D9F721E0A2E1B1E001C01D92AF31B20752
:1000C000E1F70E9439020C94B8020C940000CF931F
:1000D000DF9300D01F92CDB7DEB789837B836A831D
:1000E00089818A3031F48A819B81BC018DE00E9434
:1000F000670080EC90E0FC018081882F90E08072A6
:100100009927892BB1F386EC90E02981FC012083AB
:1001100080E090E00F900F900F90DF91CF910895C5
:10012000CF93DF93CDB7DEB781E890E02BE0FC0101
:10013000208388E890E02DE730E0FC0131832083C4
:100140008FE690E022E0FC01208384E890E0FC014F
:100150001182108280910E0190910F01A0911001E7
:10016000B09111018093130190931401A093150194
:10017000B09316018FE590E02FE530E0F901208182
:100180002068FC0120830000DF91CF910895CF9378
:10019000DF93CDB7DEB781E890E0FC01108200006C
:1001A000DF91CF910895CF93DF93CDB7DEB781E094
:1001B000809312010000DF91CF9108951F920F925A
:1001C00000905F000F92112400905B000F922F931C
:1001D0003F934F935F936F937F938F939F93AF93CF
:1001E000BF93EF93FF93CF93DF93CDB7DEB78091AB
:1001F000130190911401A0911501B091160101977E
:10020000A109B1098093130190931401A0931501E2
:10021000B09316018091130190911401A0911501E2
:10022000B0911601892B8A2B8B2B91F40E94D3005D
:1002300080910E0190910F01A0911001B0911101D8
:100240008093130190931401A0931501B0931601AC
:100250000000DF91CF91FF91EF91BF91AF919F91FE
:100260008F917F916F915F914F913F912F910F905F
:1002700000925B000F9000925F000F901F90189506
:10028000CF93DF9300D000D0CDB7DEB769837A83F8
:100290008B839C8389819A81AB81BC8180930E0181
:1002A00090930F01A0931001B093110180910E0162
:1002B00090910F01A0911001B09111018093130151
:1002C00090931401A0931501B093160100000F90B4
:1002D0000F900F900F90DF91CF910895CF93DF9300
:1002E000CDB7DEB780911C0190911D018130910541
:1002F00079F08130910518F0029789F017C01092BB
:100300001E0181E090E090931D0180931C0113C0B9
:1003100082E090E090931D0180931C010CC081E06D
:1003200090E090931D0180931C0105C010921D0167
:1003300010921C01000080911C0190911D018130E0
:10034000910519F0029729F007C088E080931E01FB
:1003500003C010921E0100000000DF91CF910895AC
:10036000CF93DF93CDB7DEB780911A0190911B0137
:100370008130910591F08130910530F08230910506
:1003800099F00397C1F01EC01092190181E090E02E
:1003900090931B0180931A011AC082E090E0909321
:1003A0001B0180931A0113C083E090E090931B011E
:1003B00080931A010CC081E090E090931B01809320
:1003C0001A0105C010921B0110921A0100008091C1
:1003D0001A0190911B018230910551F083309105F3
:1003E00059F0019709F00CC081E08093190108C011
:1003F00082E08093190104C084E080931901000019
:100400000000DF91CF910895CF93DF93CDB7DEB792
:100410008091170190911801009719F0019741F010
:100420000EC081E090E090931801809317010CC0FA
:1004300081E090E0909318018093170105C010921D
:100440001801109217010000809117019091180176
:10045000019709F00AC085E290E0309119012091DE
:100460001E01232BFC01208300000000DF91CF91AF
:100470000895CF93DF93CDB7DEB72C970FB6F894DE
:10048000DEBF0FBECDBF19821A821B821C821D8265
:100490001E821F82188684E690E0A0E0B0E0898783
:1004A0009A87AB87BC8784E290E02FEFFC01208322
:1004B00085E290E0FC01108264E670E080E090E06C
:1004C0000E9440010E94900010921D0110921C0198
:1004D00010921B0110921A0110921801109217012C
:1004E00089819A81AB81BC81883E9340A105B10589
:1004F00030F00E946E0119821A821B821C828D814B
:100500009E81AF81B8858C329140A105B10530F054
:100510000E94B0011D821E821F8218860E94040262
:100520000000809112018823E1F3109212012981C9
:100530003A814B815C8189859A85AB85BC85820F28
:10054000931FA41FB51F89839A83AB83BC832D811E
:100550003E814F81588589859A85AB85BC85820F00
:10056000931FA41FB51F8D839E83AF83B887B8CF19
:04057000F894FFCF2D
:10057400000000020000000067000000000001000D
:02058400000075
:00000001FF
